{
  "contractName": "IpContract",
  "abi": [
    {
      "inputs": [],
      "payable": false,
      "stateMutability": "nonpayable",
      "type": "constructor"
    },
    {
      "anonymous": false,
      "inputs": [
        {
          "indexed": false,
          "internalType": "uint256",
          "name": "ipItemCount",
          "type": "uint256"
        },
        {
          "indexed": false,
          "internalType": "string",
          "name": "description",
          "type": "string"
        },
        {
          "components": [
            {
              "internalType": "uint256",
              "name": "id",
              "type": "uint256"
            },
            {
              "internalType": "string",
              "name": "title",
              "type": "string"
            },
            {
              "internalType": "string",
              "name": "ipType",
              "type": "string"
            },
            {
              "internalType": "string",
              "name": "description",
              "type": "string"
            },
            {
              "internalType": "string[]",
              "name": "proofs",
              "type": "string[]"
            },
            {
              "internalType": "string[]",
              "name": "links",
              "type": "string[]"
            },
            {
              "internalType": "string",
              "name": "extraInfo",
              "type": "string"
            },
            {
              "internalType": "string",
              "name": "licenseType",
              "type": "string"
            },
            {
              "internalType": "string",
              "name": "ownerName",
              "type": "string"
            },
            {
              "internalType": "string",
              "name": "ownerProofType",
              "type": "string"
            },
            {
              "internalType": "string",
              "name": "ownerProofIdentifier",
              "type": "string"
            },
            {
              "internalType": "string",
              "name": "ownerDigitalSign",
              "type": "string"
            }
          ],
          "indexed": false,
          "internalType": "struct IpContract.IpRecord",
          "name": "record",
          "type": "tuple"
        }
      ],
      "name": "Added",
      "type": "event"
    },
    {
      "constant": false,
      "inputs": [
        {
          "internalType": "string",
          "name": "useTitle",
          "type": "string"
        },
        {
          "internalType": "string",
          "name": "useIpType",
          "type": "string"
        },
        {
          "internalType": "string",
          "name": "useDescription",
          "type": "string"
        },
        {
          "internalType": "string[]",
          "name": "useProofs",
          "type": "string[]"
        },
        {
          "internalType": "string[]",
          "name": "useLinks",
          "type": "string[]"
        },
        {
          "internalType": "string",
          "name": "useExtrainfo",
          "type": "string"
        },
        {
          "internalType": "string",
          "name": "useLicenseType",
          "type": "string"
        },
        {
          "internalType": "string",
          "name": "useOwnerName",
          "type": "string"
        },
        {
          "internalType": "string",
          "name": "useOwnerProofType",
          "type": "string"
        },
        {
          "internalType": "string",
          "name": "useOwnerProofIdentifier",
          "type": "string"
        },
        {
          "internalType": "string",
          "name": "useOwnerDigitalSign",
          "type": "string"
        }
      ],
      "name": "addIpRecord",
      "outputs": [
        {
          "internalType": "uint256",
          "name": "",
          "type": "uint256"
        }
      ],
      "payable": false,
      "stateMutability": "nonpayable",
      "type": "function"
    },
    {
      "constant": true,
      "inputs": [
        {
          "internalType": "uint256",
          "name": "useIpItemId",
          "type": "uint256"
        }
      ],
      "name": "readIpRecord",
      "outputs": [
        {
          "components": [
            {
              "internalType": "uint256",
              "name": "id",
              "type": "uint256"
            },
            {
              "internalType": "string",
              "name": "title",
              "type": "string"
            },
            {
              "internalType": "string",
              "name": "ipType",
              "type": "string"
            },
            {
              "internalType": "string",
              "name": "description",
              "type": "string"
            },
            {
              "internalType": "string[]",
              "name": "proofs",
              "type": "string[]"
            },
            {
              "internalType": "string[]",
              "name": "links",
              "type": "string[]"
            },
            {
              "internalType": "string",
              "name": "extraInfo",
              "type": "string"
            },
            {
              "internalType": "string",
              "name": "licenseType",
              "type": "string"
            },
            {
              "internalType": "string",
              "name": "ownerName",
              "type": "string"
            },
            {
              "internalType": "string",
              "name": "ownerProofType",
              "type": "string"
            },
            {
              "internalType": "string",
              "name": "ownerProofIdentifier",
              "type": "string"
            },
            {
              "internalType": "string",
              "name": "ownerDigitalSign",
              "type": "string"
            }
          ],
          "internalType": "struct IpContract.IpRecord",
          "name": "",
          "type": "tuple"
        }
      ],
      "payable": false,
      "stateMutability": "view",
      "type": "function"
    },
    {
      "constant": false,
      "inputs": [
        {
          "internalType": "string",
          "name": "useExecutorName",
          "type": "string"
        },
        {
          "internalType": "string",
          "name": "useExecutorIdProof",
          "type": "string"
        },
        {
          "internalType": "string",
          "name": "useExecutorDigitalSign",
          "type": "string"
        },
        {
          "internalType": "string",
          "name": "useTestatorName",
          "type": "string"
        },
        {
          "internalType": "string",
          "name": "useTestatorIdProof",
          "type": "string"
        },
        {
          "internalType": "string",
          "name": "useTestatorDigitalSign",
          "type": "string"
        },
        {
          "internalType": "string",
          "name": "useWitnessName",
          "type": "string"
        },
        {
          "internalType": "string",
          "name": "useWitnessIdProof",
          "type": "string"
        },
        {
          "internalType": "string",
          "name": "useWitnessDigitalSign",
          "type": "string"
        },
        {
          "internalType": "string",
          "name": "useDocument",
          "type": "string"
        }
      ],
      "name": "addWillRecord",
      "outputs": [
        {
          "internalType": "uint256",
          "name": "",
          "type": "uint256"
        }
      ],
      "payable": false,
      "stateMutability": "nonpayable",
      "type": "function"
    },
    {
      "constant": true,
      "inputs": [
        {
          "internalType": "uint256",
          "name": "useWillItemId",
          "type": "uint256"
        }
      ],
      "name": "readWillRecord",
      "outputs": [
        {
          "components": [
            {
              "internalType": "uint256",
              "name": "id",
              "type": "uint256"
            },
            {
              "internalType": "string",
              "name": "executorName",
              "type": "string"
            },
            {
              "internalType": "string",
              "name": "executorIdProof",
              "type": "string"
            },
            {
              "internalType": "string",
              "name": "executorDigitalSign",
              "type": "string"
            },
            {
              "internalType": "string",
              "name": "testatorName",
              "type": "string"
            },
            {
              "internalType": "string",
              "name": "testatorIdProof",
              "type": "string"
            },
            {
              "internalType": "string",
              "name": "testatorDigitalSign",
              "type": "string"
            },
            {
              "internalType": "string",
              "name": "witnessName",
              "type": "string"
            },
            {
              "internalType": "string",
              "name": "witnessIdProof",
              "type": "string"
            },
            {
              "internalType": "string",
              "name": "witnessDigitalSign",
              "type": "string"
            },
            {
              "internalType": "string",
              "name": "document",
              "type": "string"
            }
          ],
          "internalType": "struct IpContract.WillRecord",
          "name": "",
          "type": "tuple"
        }
      ],
      "payable": false,
      "stateMutability": "view",
      "type": "function"
    }
  ],
  "bytecode": "0x6080604052600160005560006001553480156200001b57600080fd5b50600160026000808152602001908152602001600020600001819055506040518060400160405280600481526020017f44656d6f0000000000000000000000000000000000000000000000000000000081525060026000808152602001908152602001600020600101908051906020019062000099929190620004bc565b506040518060400160405280600481526020017f44656d6f00000000000000000000000000000000000000000000000000000000815250600260008081526020019081526020016000206002019080519060200190620000fb929190620004bc565b506040518060400160405280600481526020017f44656d6f000000000000000000000000000000000000000000000000000000008152506002600080815260200190815260200160002060030190805190602001906200015d929190620004bc565b50600260008081526020019081526020016000206004018060018154018082558091505090600182039060005260206000200160006040518060400160405280600481526020017f44656d6f0000000000000000000000000000000000000000000000000000000081525090919091509080519060200190620001e2929190620004bc565b5050600260008081526020019081526020016000206005018060018154018082558091505090600182039060005260206000200160006040518060400160405280600481526020017f44656d6f000000000000000000000000000000000000000000000000000000008152509091909150908051906020019062000268929190620004bc565b50506040518060400160405280600481526020017f44656d6f00000000000000000000000000000000000000000000000000000000815250600260008081526020019081526020016000206006019080519060200190620002cb929190620004bc565b506040518060400160405280600481526020017f44656d6f000000000000000000000000000000000000000000000000000000008152506002600080815260200190815260200160002060070190805190602001906200032d929190620004bc565b506040518060400160405280600481526020017f44656d6f000000000000000000000000000000000000000000000000000000008152506002600080815260200190815260200160002060080190805190602001906200038f929190620004bc565b506040518060400160405280600481526020017f44656d6f00000000000000000000000000000000000000000000000000000000815250600260008081526020019081526020016000206009019080519060200190620003f1929190620004bc565b506040518060400160405280600481526020017f44656d6f0000000000000000000000000000000000000000000000000000000081525060026000808152602001908152602001600020600a01908051906020019062000453929190620004bc565b506040518060400160405280600481526020017f44656d6f0000000000000000000000000000000000000000000000000000000081525060026000808152602001908152602001600020600b019080519060200190620004b5929190620004bc565b506200056b565b828054600181600116156101000203166002900490600052602060002090601f016020900481019282601f10620004ff57805160ff191683800117855562000530565b8280016001018555821562000530579182015b828111156200052f57825182559160200191906001019062000512565b5b5090506200053f919062000543565b5090565b6200056891905b80821115620005645760008160009055506001016200054a565b5090565b90565b6124d2806200057b6000396000f3fe608060405234801561001057600080fd5b506004361061004c5760003560e01c8063163e30cc146100515780637b9d5ed8146100815780638e452d35146100b1578063eb7151fb146100e1575b600080fd5b61006b60048036036100669190810190611b13565b610111565b6040516100789190612215565b60405180910390f35b61009b60048036036100969190810190611b13565b6107e1565b6040516100a891906121f3565b60405180910390f35b6100cb60048036036100c69190810190611750565b610fe1565b6040516100d89190612237565b60405180910390f35b6100fb60048036036100f69190810190611948565b611221565b6040516101089190612237565b60405180910390f35b6101196113eb565b816001541161015d576040517f08c379a0000000000000000000000000000000000000000000000000000000008152600401610154906121b3565b60405180910390fd5b600360008381526020019081526020016000206040518061016001604052908160008201548152602001600182018054600181600116156101000203166002900480601f01602080910402602001604051908101604052809291908181526020018280546001816001161561010002031660029004801561021f5780601f106101f45761010080835404028352916020019161021f565b820191906000526020600020905b81548152906001019060200180831161020257829003601f168201915b50505050508152602001600282018054600181600116156101000203166002900480601f0160208091040260200160405190810160405280929190818152602001828054600181600116156101000203166002900480156102c15780601f10610296576101008083540402835291602001916102c1565b820191906000526020600020905b8154815290600101906020018083116102a457829003601f168201915b50505050508152602001600382018054600181600116156101000203166002900480601f0160208091040260200160405190810160405280929190818152602001828054600181600116156101000203166002900480156103635780601f1061033857610100808354040283529160200191610363565b820191906000526020600020905b81548152906001019060200180831161034657829003601f168201915b50505050508152602001600482018054600181600116156101000203166002900480601f0160208091040260200160405190810160405280929190818152602001828054600181600116156101000203166002900480156104055780601f106103da57610100808354040283529160200191610405565b820191906000526020600020905b8154815290600101906020018083116103e857829003601f168201915b50505050508152602001600582018054600181600116156101000203166002900480601f0160208091040260200160405190810160405280929190818152602001828054600181600116156101000203166002900480156104a75780601f1061047c576101008083540402835291602001916104a7565b820191906000526020600020905b81548152906001019060200180831161048a57829003601f168201915b50505050508152602001600682018054600181600116156101000203166002900480601f0160208091040260200160405190810160405280929190818152602001828054600181600116156101000203166002900480156105495780601f1061051e57610100808354040283529160200191610549565b820191906000526020600020905b81548152906001019060200180831161052c57829003601f168201915b50505050508152602001600782018054600181600116156101000203166002900480601f0160208091040260200160405190810160405280929190818152602001828054600181600116156101000203166002900480156105eb5780601f106105c0576101008083540402835291602001916105eb565b820191906000526020600020905b8154815290600101906020018083116105ce57829003601f168201915b50505050508152602001600882018054600181600116156101000203166002900480601f01602080910402602001604051908101604052809291908181526020018280546001816001161561010002031660029004801561068d5780601f106106625761010080835404028352916020019161068d565b820191906000526020600020905b81548152906001019060200180831161067057829003601f168201915b50505050508152602001600982018054600181600116156101000203166002900480601f01602080910402602001604051908101604052809291908181526020018280546001816001161561010002031660029004801561072f5780601f106107045761010080835404028352916020019161072f565b820191906000526020600020905b81548152906001019060200180831161071257829003601f168201915b50505050508152602001600a82018054600181600116156101000203166002900480601f0160208091040260200160405190810160405280929190818152602001828054600181600116156101000203166002900480156107d15780601f106107a6576101008083540402835291602001916107d1565b820191906000526020600020905b8154815290600101906020018083116107b457829003601f168201915b5050505050815250509050919050565b6107e9611445565b816000541161082d576040517f08c379a0000000000000000000000000000000000000000000000000000000008152600401610824906121d3565b60405180910390fd5b600260008381526020019081526020016000206040518061018001604052908160008201548152602001600182018054600181600116156101000203166002900480601f0160208091040260200160405190810160405280929190818152602001828054600181600116156101000203166002900480156108ef5780601f106108c4576101008083540402835291602001916108ef565b820191906000526020600020905b8154815290600101906020018083116108d257829003601f168201915b50505050508152602001600282018054600181600116156101000203166002900480601f0160208091040260200160405190810160405280929190818152602001828054600181600116156101000203166002900480156109915780601f1061096657610100808354040283529160200191610991565b820191906000526020600020905b81548152906001019060200180831161097457829003601f168201915b50505050508152602001600382018054600181600116156101000203166002900480601f016020809104026020016040519081016040528092919081815260200182805460018160011615610100020316600290048015610a335780601f10610a0857610100808354040283529160200191610a33565b820191906000526020600020905b815481529060010190602001808311610a1657829003601f168201915b5050505050815260200160048201805480602002602001604051908101604052809291908181526020016000905b82821015610b1d578382906000526020600020018054600181600116156101000203166002900480601f016020809104026020016040519081016040528092919081815260200182805460018160011615610100020316600290048015610b095780601f10610ade57610100808354040283529160200191610b09565b820191906000526020600020905b815481529060010190602001808311610aec57829003601f168201915b505050505081526020019060010190610a61565b50505050815260200160058201805480602002602001604051908101604052809291908181526020016000905b82821015610c06578382906000526020600020018054600181600116156101000203166002900480601f016020809104026020016040519081016040528092919081815260200182805460018160011615610100020316600290048015610bf25780601f10610bc757610100808354040283529160200191610bf2565b820191906000526020600020905b815481529060010190602001808311610bd557829003601f168201915b505050505081526020019060010190610b4a565b505050508152602001600682018054600181600116156101000203166002900480601f016020809104026020016040519081016040528092919081815260200182805460018160011615610100020316600290048015610ca75780601f10610c7c57610100808354040283529160200191610ca7565b820191906000526020600020905b815481529060010190602001808311610c8a57829003601f168201915b50505050508152602001600782018054600181600116156101000203166002900480601f016020809104026020016040519081016040528092919081815260200182805460018160011615610100020316600290048015610d495780601f10610d1e57610100808354040283529160200191610d49565b820191906000526020600020905b815481529060010190602001808311610d2c57829003601f168201915b50505050508152602001600882018054600181600116156101000203166002900480601f016020809104026020016040519081016040528092919081815260200182805460018160011615610100020316600290048015610deb5780601f10610dc057610100808354040283529160200191610deb565b820191906000526020600020905b815481529060010190602001808311610dce57829003601f168201915b50505050508152602001600982018054600181600116156101000203166002900480601f016020809104026020016040519081016040528092919081815260200182805460018160011615610100020316600290048015610e8d5780601f10610e6257610100808354040283529160200191610e8d565b820191906000526020600020905b815481529060010190602001808311610e7057829003601f168201915b50505050508152602001600a82018054600181600116156101000203166002900480601f016020809104026020016040519081016040528092919081815260200182805460018160011615610100020316600290048015610f2f5780601f10610f0457610100808354040283529160200191610f2f565b820191906000526020600020905b815481529060010190602001808311610f1257829003601f168201915b50505050508152602001600b82018054600181600116156101000203166002900480601f016020809104026020016040519081016040528092919081815260200182805460018160011615610100020316600290048015610fd15780601f10610fa657610100808354040283529160200191610fd1565b820191906000526020600020905b815481529060010190602001808311610fb457829003601f168201915b5050505050815250509050919050565b6000610feb611445565b60405180610180016040528060005481526020018e81526020018d81526020018c81526020018b81526020018a815260200189815260200188815260200187815260200186815260200185815260200184815250905080600260008054815260200190815260200160002060008201518160000155602082015181600101908051906020019061107c9291906114a6565b5060408201518160020190805190602001906110999291906114a6565b5060608201518160030190805190602001906110b69291906114a6565b5060808201518160040190805190602001906110d3929190611526565b5060a08201518160050190805190602001906110f0929190611526565b5060c082015181600601908051906020019061110d9291906114a6565b5060e082015181600701908051906020019061112a9291906114a6565b506101008201518160080190805190602001906111489291906114a6565b506101208201518160090190805190602001906111669291906114a6565b5061014082015181600a0190805190602001906111849291906114a6565b5061016082015181600b0190805190602001906111a29291906114a6565b5090505060008081548092919060010191905055507fa69ee777aa355355842c37a88b02033d71941971a3b29fde83e8e83d0f91f4ee600054600260006001600054038152602001908152602001600020604051611201929190612252565b60405180910390a16001600054039150509b9a5050505050505050505050565b600061122b6113eb565b60405180610160016040528060015481526020018d81526020018c81526020018b81526020018a8152602001898152602001888152602001878152602001868152602001858152602001848152509050806003600060015481526020019081526020016000206000820151816000015560208201518160010190805190602001906112b79291906114a6565b5060408201518160020190805190602001906112d49291906114a6565b5060608201518160030190805190602001906112f19291906114a6565b50608082015181600401908051906020019061130e9291906114a6565b5060a082015181600501908051906020019061132b9291906114a6565b5060c08201518160060190805190602001906113489291906114a6565b5060e08201518160070190805190602001906113659291906114a6565b506101008201518160080190805190602001906113839291906114a6565b506101208201518160090190805190602001906113a19291906114a6565b5061014082015181600a0190805190602001906113bf9291906114a6565b5090505060016000815480929190600101919050555060018054039150509a9950505050505050505050565b60405180610160016040528060008152602001606081526020016060815260200160608152602001606081526020016060815260200160608152602001606081526020016060815260200160608152602001606081525090565b6040518061018001604052806000815260200160608152602001606081526020016060815260200160608152602001606081526020016060815260200160608152602001606081526020016060815260200160608152602001606081525090565b828054600181600116156101000203166002900490600052602060002090601f016020900481019282601f106114e757805160ff1916838001178555611515565b82800160010185558215611515579182015b828111156115145782518255916020019190600101906114f9565b5b5090506115229190611586565b5090565b828054828255906000526020600020908101928215611575579160200282015b828111156115745782518290805190602001906115649291906114a6565b5091602001919060010190611546565b5b50905061158291906115ab565b5090565b6115a891905b808211156115a457600081600090555060010161158c565b5090565b90565b6115d491905b808211156115d057600081816115c791906115d7565b506001016115b1565b5090565b90565b50805460018160011615610100020316600290046000825580601f106115fd575061161c565b601f01602090049060005260206000209081019061161b9190611586565b5b50565b600082601f83011261163057600080fd5b813561164361163e826122c2565b612295565b9150818183526020840193506020810190508360005b83811015611689578135860161166f8882611693565b845260208401935060208301925050600181019050611659565b5050505092915050565b600082601f8301126116a457600080fd5b81356116b76116b2826122ea565b612295565b915080825260208301602083018583830111156116d357600080fd5b6116de8382846123fe565b50505092915050565b600082601f8301126116f857600080fd5b813561170b61170682612316565b612295565b9150808252602083016020830185838301111561172757600080fd5b6117328382846123fe565b50505092915050565b60008135905061174a81612478565b92915050565b60008060008060008060008060008060006101608c8e03121561177257600080fd5b60008c013567ffffffffffffffff81111561178c57600080fd5b6117988e828f016116e7565b9b505060208c013567ffffffffffffffff8111156117b557600080fd5b6117c18e828f016116e7565b9a505060408c013567ffffffffffffffff8111156117de57600080fd5b6117ea8e828f016116e7565b99505060608c013567ffffffffffffffff81111561180757600080fd5b6118138e828f0161161f565b98505060808c013567ffffffffffffffff81111561183057600080fd5b61183c8e828f0161161f565b97505060a08c013567ffffffffffffffff81111561185957600080fd5b6118658e828f016116e7565b96505060c08c013567ffffffffffffffff81111561188257600080fd5b61188e8e828f016116e7565b95505060e08c013567ffffffffffffffff8111156118ab57600080fd5b6118b78e828f016116e7565b9450506101008c013567ffffffffffffffff8111156118d557600080fd5b6118e18e828f016116e7565b9350506101208c013567ffffffffffffffff8111156118ff57600080fd5b61190b8e828f016116e7565b9250506101408c013567ffffffffffffffff81111561192957600080fd5b6119358e828f016116e7565b9150509295989b509295989b9093969950565b6000806000806000806000806000806101408b8d03121561196857600080fd5b60008b013567ffffffffffffffff81111561198257600080fd5b61198e8d828e016116e7565b9a505060208b013567ffffffffffffffff8111156119ab57600080fd5b6119b78d828e016116e7565b99505060408b013567ffffffffffffffff8111156119d457600080fd5b6119e08d828e016116e7565b98505060608b013567ffffffffffffffff8111156119fd57600080fd5b611a098d828e016116e7565b97505060808b013567ffffffffffffffff811115611a2657600080fd5b611a328d828e016116e7565b96505060a08b013567ffffffffffffffff811115611a4f57600080fd5b611a5b8d828e016116e7565b95505060c08b013567ffffffffffffffff811115611a7857600080fd5b611a848d828e016116e7565b94505060e08b013567ffffffffffffffff811115611aa157600080fd5b611aad8d828e016116e7565b9350506101008b013567ffffffffffffffff811115611acb57600080fd5b611ad78d828e016116e7565b9250506101208b013567ffffffffffffffff811115611af557600080fd5b611b018d828e016116e7565b9150509295989b9194979a5092959850565b600060208284031215611b2557600080fd5b6000611b338482850161173b565b91505092915050565b6000611b488383611c4d565b905092915050565b6000611b5c8383611c86565b905092915050565b6000611b6f8261237c565b611b7981856123b7565b935083602082028501611b8b85612342565b8060005b85811015611bc75784840389528151611ba88582611b3c565b9450611bb38361239d565b925060208a01995050600181019050611b8f565b50829750879550505050505092915050565b6000611be482612387565b611bee81856123b7565b935083602082028501611c0085612352565b8060005b85811015611c3b57848403895281611c1c8582611b50565b9450611c27836123aa565b925060208a01995050600181019050611c04565b50829750879550505050505092915050565b6000611c5882612392565b611c6281856123c8565b9350611c7281856020860161240d565b611c7b8161245a565b840191505092915050565b600081546001811660008114611ca35760018114611cc957611d0d565b607f6002830416611cb481876123c8565b955060ff198316865260208601935050611d0d565b60028204611cd781876123c8565b9550611ce285612367565b60005b82811015611d0457815481890152600182019150602081019050611ce5565b80880195505050505b505092915050565b6000611d22600a836123d9565b91507f44617461206164646564000000000000000000000000000000000000000000006000830152602082019050919050565b6000611d62600f836123d9565b91507f496e76616c69642057696c6c20494400000000000000000000000000000000006000830152602082019050919050565b6000611da2600d836123d9565b91507f496e76616c6964204970204944000000000000000000000000000000000000006000830152602082019050919050565b600061018083016000830151611dee6000860182612195565b5060208301518482036020860152611e068282611c4d565b91505060408301518482036040860152611e208282611c4d565b91505060608301518482036060860152611e3a8282611c4d565b91505060808301518482036080860152611e548282611b64565b91505060a083015184820360a0860152611e6e8282611b64565b91505060c083015184820360c0860152611e888282611c4d565b91505060e083015184820360e0860152611ea28282611c4d565b915050610100830151848203610100860152611ebe8282611c4d565b915050610120830151848203610120860152611eda8282611c4d565b915050610140830151848203610140860152611ef68282611c4d565b915050610160830151848203610160860152611f128282611c4d565b9150508091505092915050565b600061018083016000808401549050611f3781612440565b611f446000870182612195565b50600184018583036020870152611f5b8382611c86565b925050600284018583036040870152611f748382611c86565b925050600384018583036060870152611f8d8382611c86565b925050600484018583036080870152611fa68382611bd9565b9250506005840185830360a0870152611fbf8382611bd9565b9250506006840185830360c0870152611fd88382611c86565b9250506007840185830360e0870152611ff18382611c86565b9250506008840185830361010087015261200b8382611c86565b925050600984018583036101208701526120258382611c86565b925050600a840185830361014087015261203f8382611c86565b925050600b84018583036101608701526120598382611c86565b925050819250505092915050565b6000610160830160008301516120806000860182612195565b50602083015184820360208601526120988282611c4d565b915050604083015184820360408601526120b28282611c4d565b915050606083015184820360608601526120cc8282611c4d565b915050608083015184820360808601526120e68282611c4d565b91505060a083015184820360a08601526121008282611c4d565b91505060c083015184820360c086015261211a8282611c4d565b91505060e083015184820360e08601526121348282611c4d565b9150506101008301518482036101008601526121508282611c4d565b91505061012083015184820361012086015261216c8282611c4d565b9150506101408301518482036101408601526121888282611c4d565b9150508091505092915050565b61219e816123f4565b82525050565b6121ad816123f4565b82525050565b600060208201905081810360008301526121cc81611d55565b9050919050565b600060208201905081810360008301526121ec81611d95565b9050919050565b6000602082019050818103600083015261220d8184611dd5565b905092915050565b6000602082019050818103600083015261222f8184612067565b905092915050565b600060208201905061224c60008301846121a4565b92915050565b600060608201905061226760008301856121a4565b818103602083015261227881611d15565b9050818103604083015261228c8184611f1f565b90509392505050565b6000604051905081810181811067ffffffffffffffff821117156122b857600080fd5b8060405250919050565b600067ffffffffffffffff8211156122d957600080fd5b602082029050602081019050919050565b600067ffffffffffffffff82111561230157600080fd5b601f19601f8301169050602081019050919050565b600067ffffffffffffffff82111561232d57600080fd5b601f19601f8301169050602081019050919050565b6000819050602082019050919050565b60008190508160005260206000209050919050565b60008190508160005260206000209050919050565b600081519050919050565b600081549050919050565b600081519050919050565b6000602082019050919050565b6000600182019050919050565b600082825260208201905092915050565b600082825260208201905092915050565b600082825260208201905092915050565b6000819050919050565b6000819050919050565b82818337600083830152505050565b60005b8381101561242b578082015181840152602081019050612410565b8381111561243a576000848401525b50505050565b600061245361244e8361246b565b6123ea565b9050919050565b6000601f19601f8301169050919050565b60008160001c9050919050565b612481816123f4565b811461248c57600080fd5b5056fea365627a7a7231582055c339f5bae1804ea70dc8dd9b8bf1369677893a7894bf3aa53a5b279e29a78c6c6578706572696d656e74616cf564736f6c63430005100040",
  "source": "// SPDX-License-Identifier: GPL-3.0\r\n\r\npragma solidity >=0.5.16;\r\npragma experimental ABIEncoderV2;\r\n\r\ncontract IpContract{\r\n\r\n    uint256 ipItemCount = 1;\r\n    uint256 willItemCount = 0;\r\n\r\n    event Added(\r\n        uint256 ipItemCount,\r\n        string description,\r\n        IpRecord record\r\n    );\r\n    constructor() public {\r\n        IpMap[0].id = 1;\r\n        IpMap[0].title = \"Demo\";\r\n        IpMap[0].ipType = \"Demo\";\r\n        IpMap[0].description = \"Demo\";\r\n        IpMap[0].proofs.push(\"Demo\");\r\n        IpMap[0].links.push(\"Demo\");\r\n        IpMap[0].extraInfo = \"Demo\";\r\n        IpMap[0].licenseType = \"Demo\";\r\n        IpMap[0].ownerName = \"Demo\";\r\n        IpMap[0].ownerProofType = \"Demo\";\r\n        IpMap[0].ownerProofIdentifier = \"Demo\";\r\n        IpMap[0].ownerDigitalSign = \"Demo\";\r\n    }\r\n\r\n    struct IpRecord{\r\n        uint256 id;\r\n        string title;\r\n        string ipType;\r\n        string description;\r\n        string[] proofs;\r\n        string[] links;\r\n        string extraInfo;\r\n        string licenseType;\r\n        string ownerName;\r\n        string ownerProofType;\r\n        string ownerProofIdentifier;\r\n        string ownerDigitalSign;\r\n    }\r\n\r\n    struct WillRecord{\r\n        uint256 id;\r\n        string executorName;\r\n        //string executorIdProofType;\r\n        string executorIdProof;\r\n        string executorDigitalSign;\r\n        string testatorName;\r\n        //string testatorIdProofType;\r\n        string testatorIdProof;\r\n        string testatorDigitalSign;\r\n        string witnessName;\r\n        //string witnessIdProofType;\r\n        string witnessIdProof;\r\n        string witnessDigitalSign;\r\n        string document;\r\n    }\r\n\r\n    mapping(uint256 => IpRecord) IpMap;\r\n    mapping(uint256 => WillRecord) WillMap;\r\n\r\n    function addIpRecord(string memory useTitle, string memory useIpType, string memory useDescription, string[] memory useProofs, string[] memory useLinks, string memory useExtrainfo, string memory useLicenseType, string memory useOwnerName, string memory useOwnerProofType, string memory useOwnerProofIdentifier, string memory useOwnerDigitalSign) public returns (uint256){\r\n\r\n        IpRecord memory newIpRecord = IpRecord({\r\n            id: ipItemCount,\r\n            title: useTitle,\r\n            ipType: useIpType,\r\n            description: useDescription,\r\n            proofs: useProofs,\r\n            links: useLinks,\r\n            extraInfo: useExtrainfo,\r\n            licenseType: useLicenseType,\r\n            ownerName: useOwnerName,\r\n            ownerProofType: useOwnerProofType,\r\n            ownerProofIdentifier: useOwnerProofIdentifier,\r\n            ownerDigitalSign: useOwnerDigitalSign\r\n        });\r\n        IpMap[ipItemCount] = newIpRecord;\r\n        ipItemCount++;\r\n        emit Added(ipItemCount, \"Data added\", IpMap[ipItemCount-1]);\r\n        return ipItemCount-1;\r\n    }\r\n\r\n    function readIpRecord(uint256 useIpItemId) public view returns (IpRecord memory){\r\n        require(ipItemCount > useIpItemId, \"Invalid Ip ID\");\r\n        return(IpMap[useIpItemId]);\r\n    }\r\n\r\n    function addWillRecord(\r\n        string memory useExecutorName,\r\n        //string memory useExecutorIdProofType,\r\n        string memory useExecutorIdProof,\r\n        string memory useExecutorDigitalSign,\r\n        string memory useTestatorName,\r\n        //string memory useTestatorIdProofType,\r\n        string memory useTestatorIdProof,\r\n        string memory useTestatorDigitalSign,\r\n        string memory useWitnessName,\r\n        //string memory useWitnessIdProofType,\r\n        string memory useWitnessIdProof,\r\n        string memory useWitnessDigitalSign,\r\n        string memory useDocument\r\n    ) public returns (uint256) {\r\n\r\n        WillRecord memory newWillRecord = WillRecord({\r\n            id: willItemCount,\r\n            executorName: useExecutorName,\r\n            //executorIdProofType: useExecutorIdProofType,\r\n            executorIdProof: useExecutorIdProof,\r\n            executorDigitalSign: useExecutorDigitalSign,\r\n            testatorName: useTestatorName,\r\n            //testatorIdProofType: useTestatorIdProofType,\r\n            testatorIdProof: useTestatorIdProof,\r\n            testatorDigitalSign: useTestatorDigitalSign,\r\n            witnessName: useWitnessName,\r\n            //witnessIdProofType: useWitnessIdProofType,\r\n            witnessIdProof: useWitnessIdProof,\r\n            witnessDigitalSign: useWitnessDigitalSign,\r\n            document: useDocument\r\n        });\r\n\r\n        WillMap[willItemCount] = newWillRecord;\r\n        willItemCount++;\r\n        //emit Added(willItemCount - 1);\r\n\r\n        return willItemCount-1;\r\n    }\r\n\r\n    function readWillRecord(uint256 useWillItemId) public view returns (WillRecord memory) {\r\n        require(willItemCount > useWillItemId, \"Invalid Will ID\");\r\n        return WillMap[useWillItemId];\r\n    }\r\n}",
  "sourcePath": "D:\\Projects\\INC 2024\\unchained-ip\\server\\contracts\\DocumentContract.sol",
  "compiler": {
    "name": "solc",
    "version": "0.5.16+commit.9c3226ce.Emscripten.clang"
  },
  "schemaVersion": "3.4.14",
  "updatedAt": "2024-04-03T13:03:33.401Z",
  "networkType": "ethereum",
  "devdoc": {
    "methods": {}
  },
  "userdoc": {
    "methods": {}
  }
}